:100B0C0020204F42535441434C4520204154202037
:080B1C00003030303020434D61
:100AEC00E4FDFCC3ED9FEC9E5015E4FBFA0BBB0040
:0F0AFC00010ABA04F8BBFBF50DBD00010C80E444
:010B0B0022C7
:0F0B3A00C2A0C2A1D2A28F90C2A0C2A1C2A22209
:100A96007F30120B3A7F017E00120AEC7F38120B70
:100AA6003A7F01120AEC7F0C120B3A7F01120AEC14
:100AB600120B3A120AEC7F06120B3A7F01020AEC7D
:0F0B4900D2A0C2A1D2A28F90D2A0C2A1C2A222DA
:100A65008B158A168917120B3A801CAB15AA16A985
:100A7500171208F6601A0517E5177002051614F91E
:100A85001208F6FF120B497F017E00120AEC80DB8B
:010A9500223E
:100B2400E4F58CF58AC2B5D2B500000000000000DF
:060B3400000000C2B52222
:0409B0008E0A8F0B11
:1009B400750C00750D03780E7C007D007BFF7A0BAF
:1009C400791D7E007F071208D0E50B450A602FAE23
:1009D4000AAF0B7C007D0A12090FED4430FF740E40
:1009E400250DF8A607AE0AAF0B7C007D0A12090F8D
:1009F4008E0A8F0BE50D150D70CF150C80CB7B0087
:090A04007A00790E7FC5020A6533
:100A0D00E4F508F509120B2430B2FD20B2FDAF8CD0
:100A1D008F82758300E582AD8AF583EDF582758C45
:100A2D00FF758AFFAF82AE83EE3395E0FDFCE47B6C
:100A3D00B87A88F9F8D31209454011AE83AF827C9C
:100A4D00007D3B12090F8E088F098005E4F508F52E
:080A5D0009AF09AE080209B05F
:100AC600120A967BFF7A0B790C7F80120A6575896C
:100AD60009D28CE4F58CF58AD2B2120A0D7F027E19
:060AE60000120AEC80F48E
:03000000020B5898
:0C0B5800787FE4F6D8FD758117020AC60C
:10080000E709F608DFFA8046E709F208DFFA803EDA
:1008100088828C83E709F0A3DFFA8032E309F608C7
:10082000DFFA8078E309F208DFFA807088828C832F
:10083000E309F0A3DFFA806489828A83E0A3F608E3
:10084000DFFA805889828A83E0A3F208DFFA804CBD
:1008500080D280FA80C680D4806980F28033801094
:1008600080A680EA809A80A880DA80E280CA8033FD
:1008700089828A83ECFAE493A3C8C582C8CCC58375
:10088000CCF0A3C8C582C8CCC583CCDFE9DEE78045
:100890000D89828A83E493A3F608DFF9ECFAA9F0C4
:1008A000EDFB2289828A83ECFAE0A3C8C582C8CC1A
:1008B000C583CCF0A3C8C582C8CCC583CCDFEADE33
:1008C000E880DB89828A83E493A3F208DFF980CC95
:1008D00088F0EF60010E4E60C388F0ED2402B4048E
:1008E0000050B9F582EB2402B4040050AF23234535
:0608F00082239008507302
:1008F600BB010689828A83E0225002E722BBFE0200
:09090600E32289828A83E4932232
:10090F00C2D5EC30E709B2D5E4C39DFDE49CFCEE03
:10091F0030E715B2D5E4C39FFFE49EFE12095BC317
:10092F00E49DFDE49CFC800312095B30D507C3E412
:06093F009FFFE49EFE2272
:10094500EB9FF5F0EA9E42F0E99D42F0EC6480C829
:0609550064809845F022C9
:10095B00BC000BBE0029EF8DF084FFADF022E4CC80
:10096B00F875F008EF2FFFEE33FEEC33FCEE9DEC49
:10097B00984005FCEE9DFE0FD5F0E9E4CEFD22ED8F
:10098B00F8F5F0EE8420D21CFEADF075F008EF2FD9
:10099B00FFED33FD4007985006D5F0F222C398FDCA
:0509AB000FD5F0EA2267
:00000001FF
