:1009F900454E5445522050494E204E554D42455280
:100A090000454E5452593A00455849543A00504904
:100A19004E20434F525245435400444F4F52204FAA
:100A290050454E45440057524F4E472050494E00BD
:080AFD00060D313233343500DF
:100997007F0F120AE17F38120AE17F01120AE17F15
:1009A70080120AE17F87120AE17FC0120AE17FC63F
:0309B700120AE140
:1009BA00E4F515F5167F80120AE17BFF7A0979F9C9
:1009CA00120A39120A9C7FC0120AE1740D2516F820
:1009DA00E6601712080074082516F8A607120A9C82
:0D09EA000516E51670E5051580E1120925DA
:0209F70080C1BD
:090A97007F2A120AEF7FE87E03BA
:100AA000E4FDFCC3ED9FEC9E5015E4FBFA0BBB008C
:0F0AB000010AEB640A4A70F50DBD00010C80E4E9
:010ABF002214
:0E0AE1008F90C2B5C2B6D2B7120A9CC2B7221D
:0E0AEF008F90D2B5C2B6D2B7120A9CC2B722FF
:060A39008B178A188919D1
:100A3F00E4F51AF51BAB17AA18A919851B82851A9D
:100A4F0083120A6AFF600D120AEF051BE51B70E5A2
:0B0A5F00051A80E17F107E27020AA02C
:020AC000AE077F
:100AC200EE75F00A84FDEE75F00A84A9F074302DFB
:0F0AD200FD743029F9AF05120AEFAF01020AEFE8
:10080000E4FFFEEF4E6003020898C2A0D2A1D2A27C
:10081000D2A320B006120A977F312220B106120A15
:10082000977F322220B206120A977F3322D2A0C2CB
:10083000A1D2A2D2A320B006120A977F342220B1FF
:1008400006120A977F352220B206120A977F3622B7
:10085000D2A0D2A1C2A2D2A320B006120A977F379B
:100860002220B106120A977F382220B206120A9778
:100870007F3922D2A0D2A1D2A2C2A320B006120AEE
:10088000977F2A2220B106120A977F302230B203C6
:08089000020803120A977F23FE
:01089800223D
:10092500E50D65087050E50E6509704AE50F650A25
:100935007044E510650B703EE511650C7038120AC0
:100945009C7F01120AE17F81120AE17BFF7A0A7915
:1009550017120A39120A9CD2B3C2B47FC1120AE136
:100965007BFF7A0A7923120A397F107E27120AA0A3
:10097500D2B3C2B480167F01120AE17F80120AE168
:100985007BFF7A0A792F120A39120A9C7F01120A13
:02099500E1225D
:030000000208995A
:0C089900787FE4F6D8FD75811B0208E0B2
:100A6A00BB010CE58229F582E5833AF583E0225041
:100A7A0006E92582F8E622BBFE06E92582F8E2228B
:0D0A8A00E58229F582E5833AF583E49322A5
:1008A500020997E493A3F8E493A34003F68001F2C9
:1008B50008DFF48029E493A3F85407240CC8C33354
:1008C500C4540F4420C8834004F456800146F6DF23
:1008D500E4800B0102040810204080900AFDE47EAC
:1008E500019360BCA3FF543F30E509541FFEE49318
:1008F500A360010ECF54C025E060A840B8E493A3DF
:10090500FAE493A3F8E493A3C8C582C8CAC583CA09
:10091500F0A3C8C582C8CAC583CADFE9DEE780BEC1
:010B050000EF
:00000001FF
